{
  "address": "0xD6663e685910707937e804dF4FC117278C273862",
  "abi": [
    {
      "inputs": [
        {
          "internalType": "string",
          "name": "contractUri",
          "type": "string"
        },
        {
          "internalType": "string",
          "name": "tokenUri",
          "type": "string"
        }
      ],
      "stateMutability": "nonpayable",
      "type": "constructor"
    },
    {
      "anonymous": false,
      "inputs": [
        {
          "indexed": true,
          "internalType": "address",
          "name": "account",
          "type": "address"
        },
        {
          "indexed": true,
          "internalType": "address",
          "name": "operator",
          "type": "address"
        },
        {
          "indexed": false,
          "internalType": "bool",
          "name": "approved",
          "type": "bool"
        }
      ],
      "name": "ApprovalForAll",
      "type": "event"
    },
    {
      "anonymous": false,
      "inputs": [
        {
          "indexed": true,
          "internalType": "bytes32",
          "name": "role",
          "type": "bytes32"
        },
        {
          "indexed": true,
          "internalType": "bytes32",
          "name": "previousAdminRole",
          "type": "bytes32"
        },
        {
          "indexed": true,
          "internalType": "bytes32",
          "name": "newAdminRole",
          "type": "bytes32"
        }
      ],
      "name": "RoleAdminChanged",
      "type": "event"
    },
    {
      "anonymous": false,
      "inputs": [
        {
          "indexed": true,
          "internalType": "bytes32",
          "name": "role",
          "type": "bytes32"
        },
        {
          "indexed": true,
          "internalType": "address",
          "name": "account",
          "type": "address"
        },
        {
          "indexed": true,
          "internalType": "address",
          "name": "sender",
          "type": "address"
        }
      ],
      "name": "RoleGranted",
      "type": "event"
    },
    {
      "anonymous": false,
      "inputs": [
        {
          "indexed": true,
          "internalType": "bytes32",
          "name": "role",
          "type": "bytes32"
        },
        {
          "indexed": true,
          "internalType": "address",
          "name": "account",
          "type": "address"
        },
        {
          "indexed": true,
          "internalType": "address",
          "name": "sender",
          "type": "address"
        }
      ],
      "name": "RoleRevoked",
      "type": "event"
    },
    {
      "anonymous": false,
      "inputs": [
        {
          "indexed": true,
          "internalType": "address",
          "name": "operator",
          "type": "address"
        },
        {
          "indexed": true,
          "internalType": "address",
          "name": "from",
          "type": "address"
        },
        {
          "indexed": true,
          "internalType": "address",
          "name": "to",
          "type": "address"
        },
        {
          "indexed": false,
          "internalType": "uint256[]",
          "name": "ids",
          "type": "uint256[]"
        },
        {
          "indexed": false,
          "internalType": "uint256[]",
          "name": "values",
          "type": "uint256[]"
        }
      ],
      "name": "TransferBatch",
      "type": "event"
    },
    {
      "anonymous": false,
      "inputs": [
        {
          "indexed": true,
          "internalType": "address",
          "name": "operator",
          "type": "address"
        },
        {
          "indexed": true,
          "internalType": "address",
          "name": "from",
          "type": "address"
        },
        {
          "indexed": true,
          "internalType": "address",
          "name": "to",
          "type": "address"
        },
        {
          "indexed": false,
          "internalType": "uint256",
          "name": "id",
          "type": "uint256"
        },
        {
          "indexed": false,
          "internalType": "uint256",
          "name": "value",
          "type": "uint256"
        }
      ],
      "name": "TransferSingle",
      "type": "event"
    },
    {
      "anonymous": false,
      "inputs": [
        {
          "indexed": false,
          "internalType": "string",
          "name": "value",
          "type": "string"
        },
        {
          "indexed": true,
          "internalType": "uint256",
          "name": "id",
          "type": "uint256"
        }
      ],
      "name": "URI",
      "type": "event"
    },
    {
      "inputs": [],
      "name": "DEFAULT_ADMIN_ROLE",
      "outputs": [
        {
          "internalType": "bytes32",
          "name": "",
          "type": "bytes32"
        }
      ],
      "stateMutability": "view",
      "type": "function"
    },
    {
      "inputs": [],
      "name": "MINTER_ROLE",
      "outputs": [
        {
          "internalType": "bytes32",
          "name": "",
          "type": "bytes32"
        }
      ],
      "stateMutability": "view",
      "type": "function"
    },
    {
      "inputs": [],
      "name": "URI_SETTER_ROLE",
      "outputs": [
        {
          "internalType": "bytes32",
          "name": "",
          "type": "bytes32"
        }
      ],
      "stateMutability": "view",
      "type": "function"
    },
    {
      "inputs": [
        {
          "internalType": "address",
          "name": "account",
          "type": "address"
        },
        {
          "internalType": "uint256",
          "name": "id",
          "type": "uint256"
        }
      ],
      "name": "balanceOf",
      "outputs": [
        {
          "internalType": "uint256",
          "name": "",
          "type": "uint256"
        }
      ],
      "stateMutability": "view",
      "type": "function"
    },
    {
      "inputs": [
        {
          "internalType": "address[]",
          "name": "accounts",
          "type": "address[]"
        },
        {
          "internalType": "uint256[]",
          "name": "ids",
          "type": "uint256[]"
        }
      ],
      "name": "balanceOfBatch",
      "outputs": [
        {
          "internalType": "uint256[]",
          "name": "",
          "type": "uint256[]"
        }
      ],
      "stateMutability": "view",
      "type": "function"
    },
    {
      "inputs": [
        {
          "internalType": "address",
          "name": "account",
          "type": "address"
        },
        {
          "internalType": "uint256",
          "name": "id",
          "type": "uint256"
        },
        {
          "internalType": "uint256",
          "name": "value",
          "type": "uint256"
        }
      ],
      "name": "burn",
      "outputs": [],
      "stateMutability": "nonpayable",
      "type": "function"
    },
    {
      "inputs": [
        {
          "internalType": "address",
          "name": "account",
          "type": "address"
        },
        {
          "internalType": "uint256[]",
          "name": "ids",
          "type": "uint256[]"
        },
        {
          "internalType": "uint256[]",
          "name": "values",
          "type": "uint256[]"
        }
      ],
      "name": "burnBatch",
      "outputs": [],
      "stateMutability": "nonpayable",
      "type": "function"
    },
    {
      "inputs": [],
      "name": "contractURI",
      "outputs": [
        {
          "internalType": "string",
          "name": "",
          "type": "string"
        }
      ],
      "stateMutability": "view",
      "type": "function"
    },
    {
      "inputs": [
        {
          "internalType": "uint256",
          "name": "id",
          "type": "uint256"
        }
      ],
      "name": "exists",
      "outputs": [
        {
          "internalType": "bool",
          "name": "",
          "type": "bool"
        }
      ],
      "stateMutability": "view",
      "type": "function"
    },
    {
      "inputs": [
        {
          "internalType": "bytes32",
          "name": "role",
          "type": "bytes32"
        }
      ],
      "name": "getRoleAdmin",
      "outputs": [
        {
          "internalType": "bytes32",
          "name": "",
          "type": "bytes32"
        }
      ],
      "stateMutability": "view",
      "type": "function"
    },
    {
      "inputs": [
        {
          "internalType": "bytes32",
          "name": "role",
          "type": "bytes32"
        },
        {
          "internalType": "address",
          "name": "account",
          "type": "address"
        }
      ],
      "name": "grantRole",
      "outputs": [],
      "stateMutability": "nonpayable",
      "type": "function"
    },
    {
      "inputs": [
        {
          "internalType": "bytes32",
          "name": "role",
          "type": "bytes32"
        },
        {
          "internalType": "address",
          "name": "account",
          "type": "address"
        }
      ],
      "name": "hasRole",
      "outputs": [
        {
          "internalType": "bool",
          "name": "",
          "type": "bool"
        }
      ],
      "stateMutability": "view",
      "type": "function"
    },
    {
      "inputs": [
        {
          "internalType": "address",
          "name": "account",
          "type": "address"
        },
        {
          "internalType": "address",
          "name": "operator",
          "type": "address"
        }
      ],
      "name": "isApprovedForAll",
      "outputs": [
        {
          "internalType": "bool",
          "name": "",
          "type": "bool"
        }
      ],
      "stateMutability": "view",
      "type": "function"
    },
    {
      "inputs": [
        {
          "internalType": "address",
          "name": "account",
          "type": "address"
        },
        {
          "internalType": "uint256",
          "name": "id",
          "type": "uint256"
        },
        {
          "internalType": "uint256",
          "name": "amount",
          "type": "uint256"
        },
        {
          "internalType": "bytes",
          "name": "data",
          "type": "bytes"
        }
      ],
      "name": "mint",
      "outputs": [],
      "stateMutability": "nonpayable",
      "type": "function"
    },
    {
      "inputs": [
        {
          "internalType": "address",
          "name": "to",
          "type": "address"
        },
        {
          "internalType": "uint256[]",
          "name": "ids",
          "type": "uint256[]"
        },
        {
          "internalType": "uint256[]",
          "name": "amounts",
          "type": "uint256[]"
        },
        {
          "internalType": "bytes",
          "name": "data",
          "type": "bytes"
        }
      ],
      "name": "mintBatch",
      "outputs": [],
      "stateMutability": "nonpayable",
      "type": "function"
    },
    {
      "inputs": [
        {
          "internalType": "bytes32",
          "name": "role",
          "type": "bytes32"
        },
        {
          "internalType": "address",
          "name": "account",
          "type": "address"
        }
      ],
      "name": "renounceRole",
      "outputs": [],
      "stateMutability": "nonpayable",
      "type": "function"
    },
    {
      "inputs": [
        {
          "internalType": "bytes32",
          "name": "role",
          "type": "bytes32"
        },
        {
          "internalType": "address",
          "name": "account",
          "type": "address"
        }
      ],
      "name": "revokeRole",
      "outputs": [],
      "stateMutability": "nonpayable",
      "type": "function"
    },
    {
      "inputs": [
        {
          "internalType": "address",
          "name": "from",
          "type": "address"
        },
        {
          "internalType": "address",
          "name": "to",
          "type": "address"
        },
        {
          "internalType": "uint256[]",
          "name": "ids",
          "type": "uint256[]"
        },
        {
          "internalType": "uint256[]",
          "name": "amounts",
          "type": "uint256[]"
        },
        {
          "internalType": "bytes",
          "name": "data",
          "type": "bytes"
        }
      ],
      "name": "safeBatchTransferFrom",
      "outputs": [],
      "stateMutability": "nonpayable",
      "type": "function"
    },
    {
      "inputs": [
        {
          "internalType": "address",
          "name": "from",
          "type": "address"
        },
        {
          "internalType": "address",
          "name": "to",
          "type": "address"
        },
        {
          "internalType": "uint256",
          "name": "id",
          "type": "uint256"
        },
        {
          "internalType": "uint256",
          "name": "amount",
          "type": "uint256"
        },
        {
          "internalType": "bytes",
          "name": "data",
          "type": "bytes"
        }
      ],
      "name": "safeTransferFrom",
      "outputs": [],
      "stateMutability": "nonpayable",
      "type": "function"
    },
    {
      "inputs": [
        {
          "internalType": "address",
          "name": "operator",
          "type": "address"
        },
        {
          "internalType": "bool",
          "name": "approved",
          "type": "bool"
        }
      ],
      "name": "setApprovalForAll",
      "outputs": [],
      "stateMutability": "nonpayable",
      "type": "function"
    },
    {
      "inputs": [
        {
          "internalType": "string",
          "name": "newContractUri",
          "type": "string"
        }
      ],
      "name": "setContractURI",
      "outputs": [],
      "stateMutability": "nonpayable",
      "type": "function"
    },
    {
      "inputs": [
        {
          "internalType": "string",
          "name": "newuri",
          "type": "string"
        }
      ],
      "name": "setTokenURI",
      "outputs": [],
      "stateMutability": "nonpayable",
      "type": "function"
    },
    {
      "inputs": [
        {
          "internalType": "bytes4",
          "name": "interfaceId",
          "type": "bytes4"
        }
      ],
      "name": "supportsInterface",
      "outputs": [
        {
          "internalType": "bool",
          "name": "",
          "type": "bool"
        }
      ],
      "stateMutability": "view",
      "type": "function"
    },
    {
      "inputs": [
        {
          "internalType": "uint256",
          "name": "id",
          "type": "uint256"
        }
      ],
      "name": "totalSupply",
      "outputs": [
        {
          "internalType": "uint256",
          "name": "",
          "type": "uint256"
        }
      ],
      "stateMutability": "view",
      "type": "function"
    },
    {
      "inputs": [
        {
          "internalType": "uint256",
          "name": "",
          "type": "uint256"
        }
      ],
      "name": "uri",
      "outputs": [
        {
          "internalType": "string",
          "name": "",
          "type": "string"
        }
      ],
      "stateMutability": "view",
      "type": "function"
    }
  ],
  "transactionHash": "0xf42658ff398b1e90aac7bb78a11147b1003c2b0613f9ce71da3771b2d09bc4e1",
  "args": [
    "https://staging.memberr.xyz/collectibles/contract_info.json",
    "https://staging.memberr.xyz/collectibles/{id}.json"
  ],
  "numDeployments": 3,
  "solcInputHash": "99aaff75524930db76f5059dc1c1aca1",
  "bytecode": "0x60806040523480156200001157600080fd5b5060405162002ed338038062002ed38339810160408190526200003491620002fe565b806200004081620000b9565b506200004c82620000d2565b62000059600033620000e7565b620000857f7804d923f43a17d325d77e781528e0793b2edd9890ab45fc64efd7b4b427744c33620000e7565b620000b17f9f2df0fed2c77648de5860a4cc508cd0818c85b8b8a1ab4ceeef8d981c8956a633620000e7565b5050620003a5565b8051620000ce9060029060208401906200018b565b5050565b8051620000ce9060059060208401906200018b565b60008281526004602090815260408083206001600160a01b038516845290915290205460ff16620000ce5760008281526004602090815260408083206001600160a01b03851684529091529020805460ff19166001179055620001473390565b6001600160a01b0316816001600160a01b0316837f2f8788117e7eff1d82e926ec794901d17c78024a50270940304540a733656f0d60405160405180910390a45050565b828054620001999062000368565b90600052602060002090601f016020900481019282620001bd576000855562000208565b82601f10620001d857805160ff191683800117855562000208565b8280016001018555821562000208579182015b8281111562000208578251825591602001919060010190620001eb565b50620002169291506200021a565b5090565b5b808211156200021657600081556001016200021b565b634e487b7160e01b600052604160045260246000fd5b600082601f8301126200025957600080fd5b81516001600160401b038082111562000276576200027662000231565b604051601f8301601f19908116603f01168101908282118183101715620002a157620002a162000231565b81604052838152602092508683858801011115620002be57600080fd5b600091505b83821015620002e25785820183015181830184015290820190620002c3565b83821115620002f45760008385830101525b9695505050505050565b600080604083850312156200031257600080fd5b82516001600160401b03808211156200032a57600080fd5b620003388683870162000247565b935060208501519150808211156200034f57600080fd5b506200035e8582860162000247565b9150509250929050565b600181811c908216806200037d57607f821691505b602082108114156200039f57634e487b7160e01b600052602260045260246000fd5b50919050565b612b1e80620003b56000396000f3fe608060405234801561001057600080fd5b50600436106101a25760003560e01c80637f345710116100ee578063d539139311610097578063e8a3d48511610071578063e8a3d485146103e4578063e985e9c5146103ec578063f242432a14610428578063f5298aca1461043b57600080fd5b8063d539139314610397578063d547741f146103be578063e0df5b6f146103d157600080fd5b8063a217fddf116100c8578063a217fddf1461035c578063a22cb46514610364578063bd85b0391461037757600080fd5b80637f345710146102e957806391d1485414610310578063938e3d7b1461034957600080fd5b80632f2ff15d116101505780634f558e791161012a5780634f558e79146102a15780636b20c454146102c3578063731133e9146102d657600080fd5b80632f2ff15d1461025b57806336568abe1461026e5780634e1273f41461028157600080fd5b80631f7fdffa116101815780631f7fdffa14610210578063248a9ca3146102255780632eb2c2d61461024857600080fd5b8062fdd58e146101a757806301ffc9a7146101cd5780630e89341c146101f0575b600080fd5b6101ba6101b536600461212e565b61044e565b6040519081526020015b60405180910390f35b6101e06101db36600461216e565b6104f7565b60405190151581526020016101c4565b6102036101fe36600461218b565b610508565b6040516101c491906121fc565b61022361021e366004612365565b61059c565b005b6101ba61023336600461218b565b60009081526004602052604090206001015490565b6102236102563660046123fe565b6105d9565b6102236102693660046124a8565b610665565b61022361027c3660046124a8565b61068f565b61029461028f3660046124d4565b61071b565b6040516101c491906125da565b6101e06102af36600461218b565b600090815260036020526040902054151590565b6102236102d13660046125ed565b610859565b6102236102e4366004612661565b6108e3565b6101ba7f7804d923f43a17d325d77e781528e0793b2edd9890ab45fc64efd7b4b427744c81565b6101e061031e3660046124a8565b60009182526004602090815260408084206001600160a01b0393909316845291905290205460ff1690565b6102236103573660046126b6565b610919565b6101ba600081565b610223610372366004612707565b61094c565b6101ba61038536600461218b565b60009081526003602052604090205490565b6101ba7f9f2df0fed2c77648de5860a4cc508cd0818c85b8b8a1ab4ceeef8d981c8956a681565b6102236103cc3660046124a8565b610957565b6102236103df3660046126b6565b61097c565b6102036109af565b6101e06103fa366004612743565b6001600160a01b03918216600090815260016020908152604080832093909416825291909152205460ff1690565b61022361043636600461276d565b610a41565b6102236104493660046127d2565b610acd565b60006001600160a01b0383166104d15760405162461bcd60e51b815260206004820152602a60248201527f455243313135353a2061646472657373207a65726f206973206e6f742061207660448201527f616c6964206f776e65720000000000000000000000000000000000000000000060648201526084015b60405180910390fd5b506000908152602081815260408083206001600160a01b03949094168352929052205490565b600061050282610b57565b92915050565b60606002805461051790612805565b80601f016020809104026020016040519081016040528092919081815260200182805461054390612805565b80156105905780601f1061056557610100808354040283529160200191610590565b820191906000526020600020905b81548152906001019060200180831161057357829003601f168201915b50505050509050919050565b7f9f2df0fed2c77648de5860a4cc508cd0818c85b8b8a1ab4ceeef8d981c8956a66105c681610b95565b6105d285858585610ba2565b5050505050565b6001600160a01b0385163314806105f557506105f585336103fa565b6106585760405162461bcd60e51b815260206004820152602e60248201527f455243313135353a2063616c6c6572206973206e6f7420746f6b656e206f776e60448201526d195c881bdc88185c1c1c9bdd995960921b60648201526084016104c8565b6105d28585858585610d77565b60008281526004602052604090206001015461068081610b95565b61068a8383610fe3565b505050565b6001600160a01b038116331461070d5760405162461bcd60e51b815260206004820152602f60248201527f416363657373436f6e74726f6c3a2063616e206f6e6c792072656e6f756e636560448201527f20726f6c657320666f722073656c66000000000000000000000000000000000060648201526084016104c8565b6107178282611085565b5050565b606081518351146107945760405162461bcd60e51b815260206004820152602960248201527f455243313135353a206163636f756e747320616e6420696473206c656e67746860448201527f206d69736d61746368000000000000000000000000000000000000000000000060648201526084016104c8565b6000835167ffffffffffffffff8111156107b0576107b061220f565b6040519080825280602002602001820160405280156107d9578160200160208202803683370190505b50905060005b8451811015610851576108248582815181106107fd576107fd612840565b602002602001015185838151811061081757610817612840565b602002602001015161044e565b82828151811061083657610836612840565b602090810291909101015261084a8161286c565b90506107df565b509392505050565b6001600160a01b038316331480610875575061087583336103fa565b6108d85760405162461bcd60e51b815260206004820152602e60248201527f455243313135353a2063616c6c6572206973206e6f7420746f6b656e206f776e60448201526d195c881bdc88185c1c1c9bdd995960921b60648201526084016104c8565b61068a838383611108565b7f9f2df0fed2c77648de5860a4cc508cd0818c85b8b8a1ab4ceeef8d981c8956a661090d81610b95565b6105d28585858561135f565b7f7804d923f43a17d325d77e781528e0793b2edd9890ab45fc64efd7b4b427744c61094381610b95565b61071782611482565b610717338383611495565b60008281526004602052604090206001015461097281610b95565b61068a8383611085565b7f7804d923f43a17d325d77e781528e0793b2edd9890ab45fc64efd7b4b427744c6109a681610b95565b6107178261158a565b6060600580546109be90612805565b80601f01602080910402602001604051908101604052809291908181526020018280546109ea90612805565b8015610a375780601f10610a0c57610100808354040283529160200191610a37565b820191906000526020600020905b815481529060010190602001808311610a1a57829003601f168201915b5050505050905090565b6001600160a01b038516331480610a5d5750610a5d85336103fa565b610ac05760405162461bcd60e51b815260206004820152602e60248201527f455243313135353a2063616c6c6572206973206e6f7420746f6b656e206f776e60448201526d195c881bdc88185c1c1c9bdd995960921b60648201526084016104c8565b6105d2858585858561159d565b6001600160a01b038316331480610ae95750610ae983336103fa565b610b4c5760405162461bcd60e51b815260206004820152602e60248201527f455243313135353a2063616c6c6572206973206e6f7420746f6b656e206f776e60448201526d195c881bdc88185c1c1c9bdd995960921b60648201526084016104c8565b61068a838383611756565b60006001600160e01b031982167f7965db0b0000000000000000000000000000000000000000000000000000000014806105025750610502826118e6565b610b9f8133611981565b50565b6001600160a01b038416610c025760405162461bcd60e51b815260206004820152602160248201527f455243313135353a206d696e7420746f20746865207a65726f206164647265736044820152607360f81b60648201526084016104c8565b8151835114610c645760405162461bcd60e51b815260206004820152602860248201527f455243313135353a2069647320616e6420616d6f756e7473206c656e677468206044820152670dad2e6dac2e8c6d60c31b60648201526084016104c8565b33610c74816000878787876119f6565b60005b8451811015610d0f57838181518110610c9257610c92612840565b6020026020010151600080878481518110610caf57610caf612840565b602002602001015181526020019081526020016000206000886001600160a01b03166001600160a01b031681526020019081526020016000206000828254610cf79190612887565b90915550819050610d078161286c565b915050610c77565b50846001600160a01b031660006001600160a01b0316826001600160a01b03167f4a39dc06d4c0dbc64b70af90fd698a233a518aa5d07e595d983b8c0526c8f7fb8787604051610d6092919061289f565b60405180910390a46105d281600087878787611a04565b8151835114610dd95760405162461bcd60e51b815260206004820152602860248201527f455243313135353a2069647320616e6420616d6f756e7473206c656e677468206044820152670dad2e6dac2e8c6d60c31b60648201526084016104c8565b6001600160a01b038416610e3d5760405162461bcd60e51b815260206004820152602560248201527f455243313135353a207472616e7366657220746f20746865207a65726f206164604482015264647265737360d81b60648201526084016104c8565b33610e4c8187878787876119f6565b60005b8451811015610f75576000858281518110610e6c57610e6c612840565b602002602001015190506000858381518110610e8a57610e8a612840565b602090810291909101810151600084815280835260408082206001600160a01b038e168352909352919091205490915081811015610f1d5760405162461bcd60e51b815260206004820152602a60248201527f455243313135353a20696e73756666696369656e742062616c616e636520666f60448201526939103a3930b739b332b960b11b60648201526084016104c8565b6000838152602081815260408083206001600160a01b038e8116855292528083208585039055908b16825281208054849290610f5a908490612887565b9250508190555050505080610f6e9061286c565b9050610e4f565b50846001600160a01b0316866001600160a01b0316826001600160a01b03167f4a39dc06d4c0dbc64b70af90fd698a233a518aa5d07e595d983b8c0526c8f7fb8787604051610fc592919061289f565b60405180910390a4610fdb818787878787611a04565b505050505050565b60008281526004602090815260408083206001600160a01b038516845290915290205460ff166107175760008281526004602090815260408083206001600160a01b03851684529091529020805460ff191660011790556110413390565b6001600160a01b0316816001600160a01b0316837f2f8788117e7eff1d82e926ec794901d17c78024a50270940304540a733656f0d60405160405180910390a45050565b60008281526004602090815260408083206001600160a01b038516845290915290205460ff16156107175760008281526004602090815260408083206001600160a01b0385168085529252808320805460ff1916905551339285917ff6391f5c32d9c69d2a47ea670b442974b53935d1edc7fd64eb21e047a839171b9190a45050565b6001600160a01b03831661116a5760405162461bcd60e51b815260206004820152602360248201527f455243313135353a206275726e2066726f6d20746865207a65726f206164647260448201526265737360e81b60648201526084016104c8565b80518251146111cc5760405162461bcd60e51b815260206004820152602860248201527f455243313135353a2069647320616e6420616d6f756e7473206c656e677468206044820152670dad2e6dac2e8c6d60c31b60648201526084016104c8565b60003390506111ef818560008686604051806020016040528060008152506119f6565b60005b83518110156112f057600084828151811061120f5761120f612840565b60200260200101519050600084838151811061122d5761122d612840565b602090810291909101810151600084815280835260408082206001600160a01b038c1683529093529190912054909150818110156112b95760405162461bcd60e51b8152602060048201526024808201527f455243313135353a206275726e20616d6f756e7420657863656564732062616c604482015263616e636560e01b60648201526084016104c8565b6000928352602083815260408085206001600160a01b038b16865290915290922091039055806112e88161286c565b9150506111f2565b5060006001600160a01b0316846001600160a01b0316826001600160a01b03167f4a39dc06d4c0dbc64b70af90fd698a233a518aa5d07e595d983b8c0526c8f7fb868660405161134192919061289f565b60405180910390a46040805160208101909152600090525b50505050565b6001600160a01b0384166113bf5760405162461bcd60e51b815260206004820152602160248201527f455243313135353a206d696e7420746f20746865207a65726f206164647265736044820152607360f81b60648201526084016104c8565b3360006113cb85611baa565b905060006113d885611baa565b90506113e9836000898585896119f6565b6000868152602081815260408083206001600160a01b038b16845290915281208054879290611419908490612887565b909155505060408051878152602081018790526001600160a01b03808a1692600092918716917fc3d58168c5ae7397731d063d5bbf3d657854427343f4c083240f7aacaa2d0f62910160405180910390a461147983600089898989611bf5565b50505050505050565b8051610717906005906020840190612079565b816001600160a01b0316836001600160a01b0316141561151d5760405162461bcd60e51b815260206004820152602960248201527f455243313135353a2073657474696e6720617070726f76616c2073746174757360448201527f20666f722073656c66000000000000000000000000000000000000000000000060648201526084016104c8565b6001600160a01b03838116600081815260016020908152604080832094871680845294825291829020805460ff191686151590811790915591519182527f17307eab39ab6107e8899845ad3d59bd9653f200f220920489ca2b5937696c31910160405180910390a3505050565b8051610717906002906020840190612079565b6001600160a01b0384166116015760405162461bcd60e51b815260206004820152602560248201527f455243313135353a207472616e7366657220746f20746865207a65726f206164604482015264647265737360d81b60648201526084016104c8565b33600061160d85611baa565b9050600061161a85611baa565b905061162a8389898585896119f6565b6000868152602081815260408083206001600160a01b038c168452909152902054858110156116ae5760405162461bcd60e51b815260206004820152602a60248201527f455243313135353a20696e73756666696369656e742062616c616e636520666f60448201526939103a3930b739b332b960b11b60648201526084016104c8565b6000878152602081815260408083206001600160a01b038d8116855292528083208985039055908a168252812080548892906116eb908490612887565b909155505060408051888152602081018890526001600160a01b03808b16928c821692918816917fc3d58168c5ae7397731d063d5bbf3d657854427343f4c083240f7aacaa2d0f62910160405180910390a461174b848a8a8a8a8a611bf5565b505050505050505050565b6001600160a01b0383166117b85760405162461bcd60e51b815260206004820152602360248201527f455243313135353a206275726e2066726f6d20746865207a65726f206164647260448201526265737360e81b60648201526084016104c8565b3360006117c484611baa565b905060006117d184611baa565b90506117f1838760008585604051806020016040528060008152506119f6565b6000858152602081815260408083206001600160a01b038a1684529091529020548481101561186e5760405162461bcd60e51b8152602060048201526024808201527f455243313135353a206275726e20616d6f756e7420657863656564732062616c604482015263616e636560e01b60648201526084016104c8565b6000868152602081815260408083206001600160a01b038b81168086529184528285208a8703905582518b81529384018a90529092908816917fc3d58168c5ae7397731d063d5bbf3d657854427343f4c083240f7aacaa2d0f62910160405180910390a4604080516020810190915260009052611479565b60006001600160e01b031982167fd9b67a2600000000000000000000000000000000000000000000000000000000148061194957506001600160e01b031982167f0e89341c00000000000000000000000000000000000000000000000000000000145b8061050257507f01ffc9a7000000000000000000000000000000000000000000000000000000006001600160e01b0319831614610502565b60008281526004602090815260408083206001600160a01b038516845290915290205460ff16610717576119b481611cf1565b6119bf836020611d03565b6040516020016119d09291906128cd565b60408051601f198184030181529082905262461bcd60e51b82526104c8916004016121fc565b610fdb868686868686611eeb565b6001600160a01b0384163b15610fdb5760405163bc197c8160e01b81526001600160a01b0385169063bc197c8190611a48908990899088908890889060040161294e565b6020604051808303816000875af1925050508015611a83575060408051601f3d908101601f19168201909252611a80918101906129ac565b60015b611b3957611a8f6129c9565b806308c379a01415611ac95750611aa46129e5565b80611aaf5750611acb565b8060405162461bcd60e51b81526004016104c891906121fc565b505b60405162461bcd60e51b815260206004820152603460248201527f455243313135353a207472616e7366657220746f206e6f6e2d4552433131353560448201527f526563656976657220696d706c656d656e74657200000000000000000000000060648201526084016104c8565b6001600160e01b0319811663bc197c8160e01b146114795760405162461bcd60e51b815260206004820152602860248201527f455243313135353a204552433131353552656365697665722072656a656374656044820152676420746f6b656e7360c01b60648201526084016104c8565b60408051600180825281830190925260609160009190602080830190803683370190505090508281600081518110611be457611be4612840565b602090810291909101015292915050565b6001600160a01b0384163b15610fdb5760405163f23a6e6160e01b81526001600160a01b0385169063f23a6e6190611c399089908990889088908890600401612a6f565b6020604051808303816000875af1925050508015611c74575060408051601f3d908101601f19168201909252611c71918101906129ac565b60015b611c8057611a8f6129c9565b6001600160e01b0319811663f23a6e6160e01b146114795760405162461bcd60e51b815260206004820152602860248201527f455243313135353a204552433131353552656365697665722072656a656374656044820152676420746f6b656e7360c01b60648201526084016104c8565b60606105026001600160a01b03831660145b60606000611d12836002612ab2565b611d1d906002612887565b67ffffffffffffffff811115611d3557611d3561220f565b6040519080825280601f01601f191660200182016040528015611d5f576020820181803683370190505b5090507f300000000000000000000000000000000000000000000000000000000000000081600081518110611d9657611d96612840565b60200101906001600160f81b031916908160001a9053507f780000000000000000000000000000000000000000000000000000000000000081600181518110611de157611de1612840565b60200101906001600160f81b031916908160001a9053506000611e05846002612ab2565b611e10906001612887565b90505b6001811115611e95577f303132333435363738396162636465660000000000000000000000000000000085600f1660108110611e5157611e51612840565b1a60f81b828281518110611e6757611e67612840565b60200101906001600160f81b031916908160001a90535060049490941c93611e8e81612ad1565b9050611e13565b508315611ee45760405162461bcd60e51b815260206004820181905260248201527f537472696e67733a20686578206c656e67746820696e73756666696369656e7460448201526064016104c8565b9392505050565b6001600160a01b038516611f725760005b8351811015611f7057828181518110611f1757611f17612840565b602002602001015160036000868481518110611f3557611f35612840565b602002602001015181526020019081526020016000206000828254611f5a9190612887565b90915550611f6990508161286c565b9050611efc565b505b6001600160a01b038416610fdb5760005b8351811015611479576000848281518110611fa057611fa0612840565b602002602001015190506000848381518110611fbe57611fbe612840565b60200260200101519050600060036000848152602001908152602001600020549050818110156120565760405162461bcd60e51b815260206004820152602860248201527f455243313135353a206275726e20616d6f756e74206578636565647320746f7460448201527f616c537570706c7900000000000000000000000000000000000000000000000060648201526084016104c8565b600092835260036020526040909220910390556120728161286c565b9050611f83565b82805461208590612805565b90600052602060002090601f0160209004810192826120a757600085556120ed565b82601f106120c057805160ff19168380011785556120ed565b828001600101855582156120ed579182015b828111156120ed5782518255916020019190600101906120d2565b506120f99291506120fd565b5090565b5b808211156120f957600081556001016120fe565b80356001600160a01b038116811461212957600080fd5b919050565b6000806040838503121561214157600080fd5b61214a83612112565b946020939093013593505050565b6001600160e01b031981168114610b9f57600080fd5b60006020828403121561218057600080fd5b8135611ee481612158565b60006020828403121561219d57600080fd5b5035919050565b60005b838110156121bf5781810151838201526020016121a7565b838111156113595750506000910152565b600081518084526121e88160208601602086016121a4565b601f01601f19169290920160200192915050565b602081526000611ee460208301846121d0565b634e487b7160e01b600052604160045260246000fd5b601f8201601f1916810167ffffffffffffffff8111828210171561224b5761224b61220f565b6040525050565b600067ffffffffffffffff82111561226c5761226c61220f565b5060051b60200190565b600082601f83011261228757600080fd5b8135602061229482612252565b6040516122a18282612225565b83815260059390931b85018201928281019150868411156122c157600080fd5b8286015b848110156122dc57803583529183019183016122c5565b509695505050505050565b600067ffffffffffffffff8311156123015761230161220f565b604051612318601f8501601f191660200182612225565b80915083815284848401111561232d57600080fd5b83836020830137600060208583010152509392505050565b600082601f83011261235657600080fd5b611ee4838335602085016122e7565b6000806000806080858703121561237b57600080fd5b61238485612112565b9350602085013567ffffffffffffffff808211156123a157600080fd5b6123ad88838901612276565b945060408701359150808211156123c357600080fd5b6123cf88838901612276565b935060608701359150808211156123e557600080fd5b506123f287828801612345565b91505092959194509250565b600080600080600060a0868803121561241657600080fd5b61241f86612112565b945061242d60208701612112565b9350604086013567ffffffffffffffff8082111561244a57600080fd5b61245689838a01612276565b9450606088013591508082111561246c57600080fd5b61247889838a01612276565b9350608088013591508082111561248e57600080fd5b5061249b88828901612345565b9150509295509295909350565b600080604083850312156124bb57600080fd5b823591506124cb60208401612112565b90509250929050565b600080604083850312156124e757600080fd5b823567ffffffffffffffff808211156124ff57600080fd5b818501915085601f83011261251357600080fd5b8135602061252082612252565b60405161252d8282612225565b83815260059390931b850182019282810191508984111561254d57600080fd5b948201945b838610156125725761256386612112565b82529482019490820190612552565b9650508601359250508082111561258857600080fd5b5061259585828601612276565b9150509250929050565b600081518084526020808501945080840160005b838110156125cf578151875295820195908201906001016125b3565b509495945050505050565b602081526000611ee4602083018461259f565b60008060006060848603121561260257600080fd5b61260b84612112565b9250602084013567ffffffffffffffff8082111561262857600080fd5b61263487838801612276565b9350604086013591508082111561264a57600080fd5b5061265786828701612276565b9150509250925092565b6000806000806080858703121561267757600080fd5b61268085612112565b93506020850135925060408501359150606085013567ffffffffffffffff8111156126aa57600080fd5b6123f287828801612345565b6000602082840312156126c857600080fd5b813567ffffffffffffffff8111156126df57600080fd5b8201601f810184136126f057600080fd5b6126ff848235602084016122e7565b949350505050565b6000806040838503121561271a57600080fd5b61272383612112565b91506020830135801515811461273857600080fd5b809150509250929050565b6000806040838503121561275657600080fd5b61275f83612112565b91506124cb60208401612112565b600080600080600060a0868803121561278557600080fd5b61278e86612112565b945061279c60208701612112565b93506040860135925060608601359150608086013567ffffffffffffffff8111156127c657600080fd5b61249b88828901612345565b6000806000606084860312156127e757600080fd5b6127f084612112565b95602085013595506040909401359392505050565b600181811c9082168061281957607f821691505b6020821081141561283a57634e487b7160e01b600052602260045260246000fd5b50919050565b634e487b7160e01b600052603260045260246000fd5b634e487b7160e01b600052601160045260246000fd5b600060001982141561288057612880612856565b5060010190565b6000821982111561289a5761289a612856565b500190565b6040815260006128b2604083018561259f565b82810360208401526128c4818561259f565b95945050505050565b7f416363657373436f6e74726f6c3a206163636f756e74200000000000000000008152600083516129058160178501602088016121a4565b7f206973206d697373696e6720726f6c652000000000000000000000000000000060179184019182015283516129428160288401602088016121a4565b01602801949350505050565b60006001600160a01b03808816835280871660208401525060a0604083015261297a60a083018661259f565b828103606084015261298c818661259f565b905082810360808401526129a081856121d0565b98975050505050505050565b6000602082840312156129be57600080fd5b8151611ee481612158565b600060033d11156129e25760046000803e5060005160e01c5b90565b600060443d10156129f35790565b6040516003193d81016004833e81513d67ffffffffffffffff8160248401118184111715612a2357505050505090565b8285019150815181811115612a3b5750505050505090565b843d8701016020828501011115612a555750505050505090565b612a6460208286010187612225565b509095945050505050565b60006001600160a01b03808816835280871660208401525084604083015283606083015260a06080830152612aa760a08301846121d0565b979650505050505050565b6000816000190483118215151615612acc57612acc612856565b500290565b600081612ae057612ae0612856565b50600019019056fea2646970667358221220ada6e2d7351ff6217a94f1cfbef011d21c8b6509a2bb4e148ab2a2d0daeffbec64736f6c634300080b0033",
  "devdoc": {
    "kind": "dev",
    "methods": {
      "balanceOf(address,uint256)": {
        "details": "See {IERC1155-balanceOf}. Requirements: - `account` cannot be the zero address."
      },
      "balanceOfBatch(address[],uint256[])": {
        "details": "See {IERC1155-balanceOfBatch}. Requirements: - `accounts` and `ids` must have the same length."
      },
      "exists(uint256)": {
        "details": "Indicates whether any token exist with a given id, or not."
      },
      "getRoleAdmin(bytes32)": {
        "details": "Returns the admin role that controls `role`. See {grantRole} and {revokeRole}. To change a role's admin, use {_setRoleAdmin}."
      },
      "grantRole(bytes32,address)": {
        "details": "Grants `role` to `account`. If `account` had not been already granted `role`, emits a {RoleGranted} event. Requirements: - the caller must have ``role``'s admin role. May emit a {RoleGranted} event."
      },
      "hasRole(bytes32,address)": {
        "details": "Returns `true` if `account` has been granted `role`."
      },
      "isApprovedForAll(address,address)": {
        "details": "See {IERC1155-isApprovedForAll}."
      },
      "renounceRole(bytes32,address)": {
        "details": "Revokes `role` from the calling account. Roles are often managed via {grantRole} and {revokeRole}: this function's purpose is to provide a mechanism for accounts to lose their privileges if they are compromised (such as when a trusted device is misplaced). If the calling account had been revoked `role`, emits a {RoleRevoked} event. Requirements: - the caller must be `account`. May emit a {RoleRevoked} event."
      },
      "revokeRole(bytes32,address)": {
        "details": "Revokes `role` from `account`. If `account` had been granted `role`, emits a {RoleRevoked} event. Requirements: - the caller must have ``role``'s admin role. May emit a {RoleRevoked} event."
      },
      "safeBatchTransferFrom(address,address,uint256[],uint256[],bytes)": {
        "details": "See {IERC1155-safeBatchTransferFrom}."
      },
      "safeTransferFrom(address,address,uint256,uint256,bytes)": {
        "details": "See {IERC1155-safeTransferFrom}."
      },
      "setApprovalForAll(address,bool)": {
        "details": "See {IERC1155-setApprovalForAll}."
      },
      "totalSupply(uint256)": {
        "details": "Total amount of tokens in with a given id."
      },
      "uri(uint256)": {
        "details": "See {IERC1155MetadataURI-uri}. This implementation returns the same URI for *all* token types. It relies on the token type ID substitution mechanism https://eips.ethereum.org/EIPS/eip-1155#metadata[defined in the EIP]. Clients calling this function must replace the `\\{id\\}` substring with the actual token type ID."
      }
    },
    "version": 1
  },
  "userdoc": {
    "kind": "user",
    "methods": {},
    "version": 1
  },
  "storageLayout": {
    "storage": [
      {
        "astId": 414,
        "contract": "contracts/TestCollectible.sol:TestCollectible",
        "label": "_balances",
        "offset": 0,
        "slot": "0",
        "type": "t_mapping(t_uint256,t_mapping(t_address,t_uint256))"
      },
      {
        "astId": 420,
        "contract": "contracts/TestCollectible.sol:TestCollectible",
        "label": "_operatorApprovals",
        "offset": 0,
        "slot": "1",
        "type": "t_mapping(t_address,t_mapping(t_address,t_bool))"
      },
      {
        "astId": 422,
        "contract": "contracts/TestCollectible.sol:TestCollectible",
        "label": "_uri",
        "offset": 0,
        "slot": "2",
        "type": "t_string_storage"
      },
      {
        "astId": 1853,
        "contract": "contracts/TestCollectible.sol:TestCollectible",
        "label": "_totalSupply",
        "offset": 0,
        "slot": "3",
        "type": "t_mapping(t_uint256,t_uint256)"
      },
      {
        "astId": 24,
        "contract": "contracts/TestCollectible.sol:TestCollectible",
        "label": "_roles",
        "offset": 0,
        "slot": "4",
        "type": "t_mapping(t_bytes32,t_struct(RoleData)19_storage)"
      },
      {
        "astId": 3469,
        "contract": "contracts/TestCollectible.sol:TestCollectible",
        "label": "_contractUri",
        "offset": 0,
        "slot": "5",
        "type": "t_string_storage"
      }
    ],
    "types": {
      "t_address": {
        "encoding": "inplace",
        "label": "address",
        "numberOfBytes": "20"
      },
      "t_bool": {
        "encoding": "inplace",
        "label": "bool",
        "numberOfBytes": "1"
      },
      "t_bytes32": {
        "encoding": "inplace",
        "label": "bytes32",
        "numberOfBytes": "32"
      },
      "t_mapping(t_address,t_bool)": {
        "encoding": "mapping",
        "key": "t_address",
        "label": "mapping(address => bool)",
        "numberOfBytes": "32",
        "value": "t_bool"
      },
      "t_mapping(t_address,t_mapping(t_address,t_bool))": {
        "encoding": "mapping",
        "key": "t_address",
        "label": "mapping(address => mapping(address => bool))",
        "numberOfBytes": "32",
        "value": "t_mapping(t_address,t_bool)"
      },
      "t_mapping(t_address,t_uint256)": {
        "encoding": "mapping",
        "key": "t_address",
        "label": "mapping(address => uint256)",
        "numberOfBytes": "32",
        "value": "t_uint256"
      },
      "t_mapping(t_bytes32,t_struct(RoleData)19_storage)": {
        "encoding": "mapping",
        "key": "t_bytes32",
        "label": "mapping(bytes32 => struct AccessControl.RoleData)",
        "numberOfBytes": "32",
        "value": "t_struct(RoleData)19_storage"
      },
      "t_mapping(t_uint256,t_mapping(t_address,t_uint256))": {
        "encoding": "mapping",
        "key": "t_uint256",
        "label": "mapping(uint256 => mapping(address => uint256))",
        "numberOfBytes": "32",
        "value": "t_mapping(t_address,t_uint256)"
      },
      "t_mapping(t_uint256,t_uint256)": {
        "encoding": "mapping",
        "key": "t_uint256",
        "label": "mapping(uint256 => uint256)",
        "numberOfBytes": "32",
        "value": "t_uint256"
      },
      "t_string_storage": {
        "encoding": "bytes",
        "label": "string",
        "numberOfBytes": "32"
      },
      "t_struct(RoleData)19_storage": {
        "encoding": "inplace",
        "label": "struct AccessControl.RoleData",
        "members": [
          {
            "astId": 16,
            "contract": "contracts/TestCollectible.sol:TestCollectible",
            "label": "members",
            "offset": 0,
            "slot": "0",
            "type": "t_mapping(t_address,t_bool)"
          },
          {
            "astId": 18,
            "contract": "contracts/TestCollectible.sol:TestCollectible",
            "label": "adminRole",
            "offset": 0,
            "slot": "1",
            "type": "t_bytes32"
          }
        ],
        "numberOfBytes": "64"
      },
      "t_uint256": {
        "encoding": "inplace",
        "label": "uint256",
        "numberOfBytes": "32"
      }
    }
  }
}