{
  "address": "0xF1fE0546b8662d6E51dC760659C304135B0ff448",
  "abi": [
    {
      "inputs": [
        {
          "internalType": "string",
          "name": "contractUri",
          "type": "string"
        },
        {
          "internalType": "string",
          "name": "tokenUri",
          "type": "string"
        }
      ],
      "stateMutability": "nonpayable",
      "type": "constructor"
    },
    {
      "anonymous": false,
      "inputs": [
        {
          "indexed": true,
          "internalType": "address",
          "name": "account",
          "type": "address"
        },
        {
          "indexed": true,
          "internalType": "address",
          "name": "operator",
          "type": "address"
        },
        {
          "indexed": false,
          "internalType": "bool",
          "name": "approved",
          "type": "bool"
        }
      ],
      "name": "ApprovalForAll",
      "type": "event"
    },
    {
      "anonymous": false,
      "inputs": [
        {
          "indexed": true,
          "internalType": "address",
          "name": "previousOwner",
          "type": "address"
        },
        {
          "indexed": true,
          "internalType": "address",
          "name": "newOwner",
          "type": "address"
        }
      ],
      "name": "OwnershipTransferred",
      "type": "event"
    },
    {
      "anonymous": false,
      "inputs": [
        {
          "indexed": true,
          "internalType": "bytes32",
          "name": "role",
          "type": "bytes32"
        },
        {
          "indexed": true,
          "internalType": "bytes32",
          "name": "previousAdminRole",
          "type": "bytes32"
        },
        {
          "indexed": true,
          "internalType": "bytes32",
          "name": "newAdminRole",
          "type": "bytes32"
        }
      ],
      "name": "RoleAdminChanged",
      "type": "event"
    },
    {
      "anonymous": false,
      "inputs": [
        {
          "indexed": true,
          "internalType": "bytes32",
          "name": "role",
          "type": "bytes32"
        },
        {
          "indexed": true,
          "internalType": "address",
          "name": "account",
          "type": "address"
        },
        {
          "indexed": true,
          "internalType": "address",
          "name": "sender",
          "type": "address"
        }
      ],
      "name": "RoleGranted",
      "type": "event"
    },
    {
      "anonymous": false,
      "inputs": [
        {
          "indexed": true,
          "internalType": "bytes32",
          "name": "role",
          "type": "bytes32"
        },
        {
          "indexed": true,
          "internalType": "address",
          "name": "account",
          "type": "address"
        },
        {
          "indexed": true,
          "internalType": "address",
          "name": "sender",
          "type": "address"
        }
      ],
      "name": "RoleRevoked",
      "type": "event"
    },
    {
      "anonymous": false,
      "inputs": [
        {
          "indexed": true,
          "internalType": "address",
          "name": "operator",
          "type": "address"
        },
        {
          "indexed": true,
          "internalType": "address",
          "name": "from",
          "type": "address"
        },
        {
          "indexed": true,
          "internalType": "address",
          "name": "to",
          "type": "address"
        },
        {
          "indexed": false,
          "internalType": "uint256[]",
          "name": "ids",
          "type": "uint256[]"
        },
        {
          "indexed": false,
          "internalType": "uint256[]",
          "name": "values",
          "type": "uint256[]"
        }
      ],
      "name": "TransferBatch",
      "type": "event"
    },
    {
      "anonymous": false,
      "inputs": [
        {
          "indexed": true,
          "internalType": "address",
          "name": "operator",
          "type": "address"
        },
        {
          "indexed": true,
          "internalType": "address",
          "name": "from",
          "type": "address"
        },
        {
          "indexed": true,
          "internalType": "address",
          "name": "to",
          "type": "address"
        },
        {
          "indexed": false,
          "internalType": "uint256",
          "name": "id",
          "type": "uint256"
        },
        {
          "indexed": false,
          "internalType": "uint256",
          "name": "value",
          "type": "uint256"
        }
      ],
      "name": "TransferSingle",
      "type": "event"
    },
    {
      "anonymous": false,
      "inputs": [
        {
          "indexed": false,
          "internalType": "string",
          "name": "value",
          "type": "string"
        },
        {
          "indexed": true,
          "internalType": "uint256",
          "name": "id",
          "type": "uint256"
        }
      ],
      "name": "URI",
      "type": "event"
    },
    {
      "inputs": [],
      "name": "DEFAULT_ADMIN_ROLE",
      "outputs": [
        {
          "internalType": "bytes32",
          "name": "",
          "type": "bytes32"
        }
      ],
      "stateMutability": "view",
      "type": "function"
    },
    {
      "inputs": [],
      "name": "MINTER_ROLE",
      "outputs": [
        {
          "internalType": "bytes32",
          "name": "",
          "type": "bytes32"
        }
      ],
      "stateMutability": "view",
      "type": "function"
    },
    {
      "inputs": [],
      "name": "URI_SETTER_ROLE",
      "outputs": [
        {
          "internalType": "bytes32",
          "name": "",
          "type": "bytes32"
        }
      ],
      "stateMutability": "view",
      "type": "function"
    },
    {
      "inputs": [
        {
          "internalType": "address",
          "name": "account",
          "type": "address"
        },
        {
          "internalType": "uint256",
          "name": "id",
          "type": "uint256"
        }
      ],
      "name": "balanceOf",
      "outputs": [
        {
          "internalType": "uint256",
          "name": "",
          "type": "uint256"
        }
      ],
      "stateMutability": "view",
      "type": "function"
    },
    {
      "inputs": [
        {
          "internalType": "address[]",
          "name": "accounts",
          "type": "address[]"
        },
        {
          "internalType": "uint256[]",
          "name": "ids",
          "type": "uint256[]"
        }
      ],
      "name": "balanceOfBatch",
      "outputs": [
        {
          "internalType": "uint256[]",
          "name": "",
          "type": "uint256[]"
        }
      ],
      "stateMutability": "view",
      "type": "function"
    },
    {
      "inputs": [],
      "name": "contractURI",
      "outputs": [
        {
          "internalType": "string",
          "name": "",
          "type": "string"
        }
      ],
      "stateMutability": "view",
      "type": "function"
    },
    {
      "inputs": [
        {
          "internalType": "uint256",
          "name": "id",
          "type": "uint256"
        }
      ],
      "name": "exists",
      "outputs": [
        {
          "internalType": "bool",
          "name": "",
          "type": "bool"
        }
      ],
      "stateMutability": "view",
      "type": "function"
    },
    {
      "inputs": [
        {
          "internalType": "bytes32",
          "name": "role",
          "type": "bytes32"
        }
      ],
      "name": "getRoleAdmin",
      "outputs": [
        {
          "internalType": "bytes32",
          "name": "",
          "type": "bytes32"
        }
      ],
      "stateMutability": "view",
      "type": "function"
    },
    {
      "inputs": [
        {
          "internalType": "bytes32",
          "name": "role",
          "type": "bytes32"
        },
        {
          "internalType": "address",
          "name": "account",
          "type": "address"
        }
      ],
      "name": "grantRole",
      "outputs": [],
      "stateMutability": "nonpayable",
      "type": "function"
    },
    {
      "inputs": [
        {
          "internalType": "bytes32",
          "name": "role",
          "type": "bytes32"
        },
        {
          "internalType": "address",
          "name": "account",
          "type": "address"
        }
      ],
      "name": "hasRole",
      "outputs": [
        {
          "internalType": "bool",
          "name": "",
          "type": "bool"
        }
      ],
      "stateMutability": "view",
      "type": "function"
    },
    {
      "inputs": [
        {
          "internalType": "address",
          "name": "account",
          "type": "address"
        },
        {
          "internalType": "address",
          "name": "operator",
          "type": "address"
        }
      ],
      "name": "isApprovedForAll",
      "outputs": [
        {
          "internalType": "bool",
          "name": "",
          "type": "bool"
        }
      ],
      "stateMutability": "view",
      "type": "function"
    },
    {
      "inputs": [
        {
          "internalType": "address",
          "name": "to",
          "type": "address"
        },
        {
          "internalType": "uint256",
          "name": "id",
          "type": "uint256"
        },
        {
          "internalType": "uint256",
          "name": "amount",
          "type": "uint256"
        },
        {
          "internalType": "bytes",
          "name": "data",
          "type": "bytes"
        }
      ],
      "name": "mint",
      "outputs": [],
      "stateMutability": "nonpayable",
      "type": "function"
    },
    {
      "inputs": [
        {
          "internalType": "address",
          "name": "to",
          "type": "address"
        },
        {
          "internalType": "uint256[]",
          "name": "ids",
          "type": "uint256[]"
        },
        {
          "internalType": "uint256[]",
          "name": "amounts",
          "type": "uint256[]"
        },
        {
          "internalType": "bytes",
          "name": "data",
          "type": "bytes"
        }
      ],
      "name": "mintBatch",
      "outputs": [],
      "stateMutability": "nonpayable",
      "type": "function"
    },
    {
      "inputs": [],
      "name": "owner",
      "outputs": [
        {
          "internalType": "address",
          "name": "",
          "type": "address"
        }
      ],
      "stateMutability": "view",
      "type": "function"
    },
    {
      "inputs": [],
      "name": "renounceOwnership",
      "outputs": [],
      "stateMutability": "nonpayable",
      "type": "function"
    },
    {
      "inputs": [
        {
          "internalType": "bytes32",
          "name": "role",
          "type": "bytes32"
        },
        {
          "internalType": "address",
          "name": "account",
          "type": "address"
        }
      ],
      "name": "renounceRole",
      "outputs": [],
      "stateMutability": "nonpayable",
      "type": "function"
    },
    {
      "inputs": [
        {
          "internalType": "bytes32",
          "name": "role",
          "type": "bytes32"
        },
        {
          "internalType": "address",
          "name": "account",
          "type": "address"
        }
      ],
      "name": "revokeRole",
      "outputs": [],
      "stateMutability": "nonpayable",
      "type": "function"
    },
    {
      "inputs": [
        {
          "internalType": "address",
          "name": "from",
          "type": "address"
        },
        {
          "internalType": "address",
          "name": "to",
          "type": "address"
        },
        {
          "internalType": "uint256[]",
          "name": "ids",
          "type": "uint256[]"
        },
        {
          "internalType": "uint256[]",
          "name": "amounts",
          "type": "uint256[]"
        },
        {
          "internalType": "bytes",
          "name": "data",
          "type": "bytes"
        }
      ],
      "name": "safeBatchTransferFrom",
      "outputs": [],
      "stateMutability": "nonpayable",
      "type": "function"
    },
    {
      "inputs": [
        {
          "internalType": "address",
          "name": "from",
          "type": "address"
        },
        {
          "internalType": "address",
          "name": "to",
          "type": "address"
        },
        {
          "internalType": "uint256",
          "name": "id",
          "type": "uint256"
        },
        {
          "internalType": "uint256",
          "name": "amount",
          "type": "uint256"
        },
        {
          "internalType": "bytes",
          "name": "data",
          "type": "bytes"
        }
      ],
      "name": "safeTransferFrom",
      "outputs": [],
      "stateMutability": "nonpayable",
      "type": "function"
    },
    {
      "inputs": [
        {
          "internalType": "address",
          "name": "operator",
          "type": "address"
        },
        {
          "internalType": "bool",
          "name": "approved",
          "type": "bool"
        }
      ],
      "name": "setApprovalForAll",
      "outputs": [],
      "stateMutability": "nonpayable",
      "type": "function"
    },
    {
      "inputs": [
        {
          "internalType": "string",
          "name": "newContractUri",
          "type": "string"
        }
      ],
      "name": "setContractURI",
      "outputs": [],
      "stateMutability": "nonpayable",
      "type": "function"
    },
    {
      "inputs": [
        {
          "internalType": "string",
          "name": "newuri",
          "type": "string"
        }
      ],
      "name": "setTokenURI",
      "outputs": [],
      "stateMutability": "nonpayable",
      "type": "function"
    },
    {
      "inputs": [
        {
          "internalType": "bytes4",
          "name": "interfaceId",
          "type": "bytes4"
        }
      ],
      "name": "supportsInterface",
      "outputs": [
        {
          "internalType": "bool",
          "name": "",
          "type": "bool"
        }
      ],
      "stateMutability": "view",
      "type": "function"
    },
    {
      "inputs": [
        {
          "internalType": "uint256",
          "name": "id",
          "type": "uint256"
        }
      ],
      "name": "totalSupply",
      "outputs": [
        {
          "internalType": "uint256",
          "name": "",
          "type": "uint256"
        }
      ],
      "stateMutability": "view",
      "type": "function"
    },
    {
      "inputs": [
        {
          "internalType": "address",
          "name": "newOwner",
          "type": "address"
        }
      ],
      "name": "transferOwnership",
      "outputs": [],
      "stateMutability": "nonpayable",
      "type": "function"
    },
    {
      "inputs": [
        {
          "internalType": "uint256",
          "name": "",
          "type": "uint256"
        }
      ],
      "name": "uri",
      "outputs": [
        {
          "internalType": "string",
          "name": "",
          "type": "string"
        }
      ],
      "stateMutability": "view",
      "type": "function"
    }
  ],
  "transactionHash": "0xec6b5e4371b539df25b29aff9bd4967c5aa8f6bdc94b5b527e5e6bb411a4c1f6",
  "args": [
    "https://staging.memberr.xyz/collectibles/metadata/contract_info.json",
    "https://staging.memberr.xyz/collectibles/metadata/{id}.json"
  ],
  "numDeployments": 2,
  "solcInputHash": "6dded178f9023c5b1590a2401a6880e9",
  "bytecode": "0x60806040523480156200001157600080fd5b5060405162002b4b38038062002b4b83398101604081905262000034916200035b565b806200004081620000c4565b506200004c33620000dd565b62000057826200012f565b6200006460003362000144565b620000907f7804d923f43a17d325d77e781528e0793b2edd9890ab45fc64efd7b4b427744c3362000144565b620000bc7f9f2df0fed2c77648de5860a4cc508cd0818c85b8b8a1ab4ceeef8d981c8956a63362000144565b505062000402565b8051620000d9906002906020840190620001e8565b5050565b600480546001600160a01b038381166001600160a01b0319831681179093556040519116919082907f8be0079c531659141344cd1fd0a4f28419497f9722a3daafe3b4186f6b6457e090600090a35050565b8051620000d9906006906020840190620001e8565b60008281526005602090815260408083206001600160a01b038516845290915290205460ff16620000d95760008281526005602090815260408083206001600160a01b03851684529091529020805460ff19166001179055620001a43390565b6001600160a01b0316816001600160a01b0316837f2f8788117e7eff1d82e926ec794901d17c78024a50270940304540a733656f0d60405160405180910390a45050565b828054620001f690620003c5565b90600052602060002090601f0160209004810192826200021a576000855562000265565b82601f106200023557805160ff191683800117855562000265565b8280016001018555821562000265579182015b828111156200026557825182559160200191906001019062000248565b506200027392915062000277565b5090565b5b8082111562000273576000815560010162000278565b634e487b7160e01b600052604160045260246000fd5b600082601f830112620002b657600080fd5b81516001600160401b0380821115620002d357620002d36200028e565b604051601f8301601f19908116603f01168101908282118183101715620002fe57620002fe6200028e565b816040528381526020925086838588010111156200031b57600080fd5b600091505b838210156200033f578582018301518183018401529082019062000320565b83821115620003515760008385830101525b9695505050505050565b600080604083850312156200036f57600080fd5b82516001600160401b03808211156200038757600080fd5b6200039586838701620002a4565b93506020850151915080821115620003ac57600080fd5b50620003bb85828601620002a4565b9150509250929050565b600181811c90821680620003da57607f821691505b60208210811415620003fc57634e487b7160e01b600052602260045260246000fd5b50919050565b61273980620004126000396000f3fe608060405234801561001057600080fd5b50600436106101ad5760003560e01c80638da5cb5b116100ee578063d539139311610097578063e8a3d48511610071578063e8a3d485146103ff578063e985e9c514610407578063f242432a14610443578063f2fde38b1461045657600080fd5b8063d5391393146103b2578063d547741f146103d9578063e0df5b6f146103ec57600080fd5b8063a217fddf116100c8578063a217fddf14610377578063a22cb4651461037f578063bd85b0391461039257600080fd5b80638da5cb5b1461031057806391d148541461032b578063938e3d7b1461036457600080fd5b80632f2ff15d1161015b5780634f558e79116101355780634f558e79146102ac578063715018a6146102ce578063731133e9146102d65780637f345710146102e957600080fd5b80632f2ff15d1461026657806336568abe146102795780634e1273f41461028c57600080fd5b80631f7fdffa1161018c5780631f7fdffa1461021b578063248a9ca3146102305780632eb2c2d61461025357600080fd5b8062fdd58e146101b257806301ffc9a7146101d85780630e89341c146101fb575b600080fd5b6101c56101c0366004611dd1565b610469565b6040519081526020015b60405180910390f35b6101eb6101e6366004611e11565b610512565b60405190151581526020016101cf565b61020e610209366004611e2e565b610523565b6040516101cf9190611ea3565b61022e61022936600461200c565b6105b7565b005b6101c561023e366004611e2e565b60009081526005602052604090206001015490565b61022e6102613660046120a5565b6105f4565b61022e61027436600461214f565b61068f565b61022e61028736600461214f565b6106b9565b61029f61029a36600461217b565b610745565b6040516101cf9190612281565b6101eb6102ba366004611e2e565b600090815260036020526040902054151590565b61022e610883565b61022e6102e4366004612294565b610897565b6101c57f7804d923f43a17d325d77e781528e0793b2edd9890ab45fc64efd7b4b427744c81565b6004546040516001600160a01b0390911681526020016101cf565b6101eb61033936600461214f565b60009182526005602090815260408084206001600160a01b0393909316845291905290205460ff1690565b61022e6103723660046122e9565b6108cd565b6101c5600081565b61022e61038d36600461233a565b610900565b6101c56103a0366004611e2e565b60009081526003602052604090205490565b6101c57f9f2df0fed2c77648de5860a4cc508cd0818c85b8b8a1ab4ceeef8d981c8956a681565b61022e6103e736600461214f565b61090b565b61022e6103fa3660046122e9565b610930565b61020e610963565b6101eb610415366004612376565b6001600160a01b03918216600090815260016020908152604080832093909416825291909152205460ff1690565b61022e6104513660046123a0565b6109f5565b61022e610464366004612405565b610a90565b60006001600160a01b0383166104ec5760405162461bcd60e51b815260206004820152602a60248201527f455243313135353a2061646472657373207a65726f206973206e6f742061207660448201527f616c6964206f776e65720000000000000000000000000000000000000000000060648201526084015b60405180910390fd5b506000908152602081815260408083206001600160a01b03949094168352929052205490565b600061051d82610b20565b92915050565b60606002805461053290612420565b80601f016020809104026020016040519081016040528092919081815260200182805461055e90612420565b80156105ab5780601f10610580576101008083540402835291602001916105ab565b820191906000526020600020905b81548152906001019060200180831161058e57829003601f168201915b50505050509050919050565b7f9f2df0fed2c77648de5860a4cc508cd0818c85b8b8a1ab4ceeef8d981c8956a66105e181610b5e565b6105ed85858585610b68565b5050505050565b6001600160a01b03851633148061061057506106108533610415565b6106825760405162461bcd60e51b815260206004820152602e60248201527f455243313135353a2063616c6c6572206973206e6f7420746f6b656e206f776e60448201527f6572206f7220617070726f76656400000000000000000000000000000000000060648201526084016104e3565b6105ed8585858585610d3d565b6000828152600560205260409020600101546106aa81610b5e565b6106b48383610fa9565b505050565b6001600160a01b03811633146107375760405162461bcd60e51b815260206004820152602f60248201527f416363657373436f6e74726f6c3a2063616e206f6e6c792072656e6f756e636560448201527f20726f6c657320666f722073656c66000000000000000000000000000000000060648201526084016104e3565b610741828261104b565b5050565b606081518351146107be5760405162461bcd60e51b815260206004820152602960248201527f455243313135353a206163636f756e747320616e6420696473206c656e67746860448201527f206d69736d61746368000000000000000000000000000000000000000000000060648201526084016104e3565b6000835167ffffffffffffffff8111156107da576107da611eb6565b604051908082528060200260200182016040528015610803578160200160208202803683370190505b50905060005b845181101561087b5761084e8582815181106108275761082761245b565b60200260200101518583815181106108415761084161245b565b6020026020010151610469565b8282815181106108605761086061245b565b602090810291909101015261087481612487565b9050610809565b509392505050565b61088b6110ce565b6108956000611128565b565b7f9f2df0fed2c77648de5860a4cc508cd0818c85b8b8a1ab4ceeef8d981c8956a66108c181610b5e565b6105ed85858585611192565b7f7804d923f43a17d325d77e781528e0793b2edd9890ab45fc64efd7b4b427744c6108f781610b5e565b610741826112b5565b6107413383836112c8565b60008281526005602052604090206001015461092681610b5e565b6106b4838361104b565b7f7804d923f43a17d325d77e781528e0793b2edd9890ab45fc64efd7b4b427744c61095a81610b5e565b610741826113bd565b60606006805461097290612420565b80601f016020809104026020016040519081016040528092919081815260200182805461099e90612420565b80156109eb5780601f106109c0576101008083540402835291602001916109eb565b820191906000526020600020905b8154815290600101906020018083116109ce57829003601f168201915b5050505050905090565b6001600160a01b038516331480610a115750610a118533610415565b610a835760405162461bcd60e51b815260206004820152602e60248201527f455243313135353a2063616c6c6572206973206e6f7420746f6b656e206f776e60448201527f6572206f7220617070726f76656400000000000000000000000000000000000060648201526084016104e3565b6105ed85858585856113d0565b610a986110ce565b6001600160a01b038116610b145760405162461bcd60e51b815260206004820152602660248201527f4f776e61626c653a206e6577206f776e657220697320746865207a65726f206160448201527f646472657373000000000000000000000000000000000000000000000000000060648201526084016104e3565b610b1d81611128565b50565b60006001600160e01b031982167f7965db0b00000000000000000000000000000000000000000000000000000000148061051d575061051d82611589565b610b1d8133611624565b6001600160a01b038416610bc85760405162461bcd60e51b815260206004820152602160248201527f455243313135353a206d696e7420746f20746865207a65726f206164647265736044820152607360f81b60648201526084016104e3565b8151835114610c2a5760405162461bcd60e51b815260206004820152602860248201527f455243313135353a2069647320616e6420616d6f756e7473206c656e677468206044820152670dad2e6dac2e8c6d60c31b60648201526084016104e3565b33610c3a81600087878787611699565b60005b8451811015610cd557838181518110610c5857610c5861245b565b6020026020010151600080878481518110610c7557610c7561245b565b602002602001015181526020019081526020016000206000886001600160a01b03166001600160a01b031681526020019081526020016000206000828254610cbd91906124a2565b90915550819050610ccd81612487565b915050610c3d565b50846001600160a01b031660006001600160a01b0316826001600160a01b03167f4a39dc06d4c0dbc64b70af90fd698a233a518aa5d07e595d983b8c0526c8f7fb8787604051610d269291906124ba565b60405180910390a46105ed816000878787876116a7565b8151835114610d9f5760405162461bcd60e51b815260206004820152602860248201527f455243313135353a2069647320616e6420616d6f756e7473206c656e677468206044820152670dad2e6dac2e8c6d60c31b60648201526084016104e3565b6001600160a01b038416610e035760405162461bcd60e51b815260206004820152602560248201527f455243313135353a207472616e7366657220746f20746865207a65726f206164604482015264647265737360d81b60648201526084016104e3565b33610e12818787878787611699565b60005b8451811015610f3b576000858281518110610e3257610e3261245b565b602002602001015190506000858381518110610e5057610e5061245b565b602090810291909101810151600084815280835260408082206001600160a01b038e168352909352919091205490915081811015610ee35760405162461bcd60e51b815260206004820152602a60248201527f455243313135353a20696e73756666696369656e742062616c616e636520666f60448201526939103a3930b739b332b960b11b60648201526084016104e3565b6000838152602081815260408083206001600160a01b038e8116855292528083208585039055908b16825281208054849290610f209084906124a2565b9250508190555050505080610f3490612487565b9050610e15565b50846001600160a01b0316866001600160a01b0316826001600160a01b03167f4a39dc06d4c0dbc64b70af90fd698a233a518aa5d07e595d983b8c0526c8f7fb8787604051610f8b9291906124ba565b60405180910390a4610fa18187878787876116a7565b505050505050565b60008281526005602090815260408083206001600160a01b038516845290915290205460ff166107415760008281526005602090815260408083206001600160a01b03851684529091529020805460ff191660011790556110073390565b6001600160a01b0316816001600160a01b0316837f2f8788117e7eff1d82e926ec794901d17c78024a50270940304540a733656f0d60405160405180910390a45050565b60008281526005602090815260408083206001600160a01b038516845290915290205460ff16156107415760008281526005602090815260408083206001600160a01b0385168085529252808320805460ff1916905551339285917ff6391f5c32d9c69d2a47ea670b442974b53935d1edc7fd64eb21e047a839171b9190a45050565b6004546001600160a01b031633146108955760405162461bcd60e51b815260206004820181905260248201527f4f776e61626c653a2063616c6c6572206973206e6f7420746865206f776e657260448201526064016104e3565b600480546001600160a01b038381167fffffffffffffffffffffffff0000000000000000000000000000000000000000831681179093556040519116919082907f8be0079c531659141344cd1fd0a4f28419497f9722a3daafe3b4186f6b6457e090600090a35050565b6001600160a01b0384166111f25760405162461bcd60e51b815260206004820152602160248201527f455243313135353a206d696e7420746f20746865207a65726f206164647265736044820152607360f81b60648201526084016104e3565b3360006111fe8561184d565b9050600061120b8561184d565b905061121c83600089858589611699565b6000868152602081815260408083206001600160a01b038b1684529091528120805487929061124c9084906124a2565b909155505060408051878152602081018790526001600160a01b03808a1692600092918716917fc3d58168c5ae7397731d063d5bbf3d657854427343f4c083240f7aacaa2d0f62910160405180910390a46112ac83600089898989611898565b50505050505050565b8051610741906006906020840190611d1c565b816001600160a01b0316836001600160a01b031614156113505760405162461bcd60e51b815260206004820152602960248201527f455243313135353a2073657474696e6720617070726f76616c2073746174757360448201527f20666f722073656c66000000000000000000000000000000000000000000000060648201526084016104e3565b6001600160a01b03838116600081815260016020908152604080832094871680845294825291829020805460ff191686151590811790915591519182527f17307eab39ab6107e8899845ad3d59bd9653f200f220920489ca2b5937696c31910160405180910390a3505050565b8051610741906002906020840190611d1c565b6001600160a01b0384166114345760405162461bcd60e51b815260206004820152602560248201527f455243313135353a207472616e7366657220746f20746865207a65726f206164604482015264647265737360d81b60648201526084016104e3565b3360006114408561184d565b9050600061144d8561184d565b905061145d838989858589611699565b6000868152602081815260408083206001600160a01b038c168452909152902054858110156114e15760405162461bcd60e51b815260206004820152602a60248201527f455243313135353a20696e73756666696369656e742062616c616e636520666f60448201526939103a3930b739b332b960b11b60648201526084016104e3565b6000878152602081815260408083206001600160a01b038d8116855292528083208985039055908a1682528120805488929061151e9084906124a2565b909155505060408051888152602081018890526001600160a01b03808b16928c821692918816917fc3d58168c5ae7397731d063d5bbf3d657854427343f4c083240f7aacaa2d0f62910160405180910390a461157e848a8a8a8a8a611898565b505050505050505050565b60006001600160e01b031982167fd9b67a260000000000000000000000000000000000000000000000000000000014806115ec57506001600160e01b031982167f0e89341c00000000000000000000000000000000000000000000000000000000145b8061051d57507f01ffc9a7000000000000000000000000000000000000000000000000000000006001600160e01b031983161461051d565b60008281526005602090815260408083206001600160a01b038516845290915290205460ff166107415761165781611994565b6116628360206119a6565b6040516020016116739291906124e8565b60408051601f198184030181529082905262461bcd60e51b82526104e391600401611ea3565b610fa1868686868686611b8e565b6001600160a01b0384163b15610fa15760405163bc197c8160e01b81526001600160a01b0385169063bc197c81906116eb9089908990889088908890600401612569565b6020604051808303816000875af1925050508015611726575060408051601f3d908101601f19168201909252611723918101906125c7565b60015b6117dc576117326125e4565b806308c379a0141561176c5750611747612600565b80611752575061176e565b8060405162461bcd60e51b81526004016104e39190611ea3565b505b60405162461bcd60e51b815260206004820152603460248201527f455243313135353a207472616e7366657220746f206e6f6e2d4552433131353560448201527f526563656976657220696d706c656d656e74657200000000000000000000000060648201526084016104e3565b6001600160e01b0319811663bc197c8160e01b146112ac5760405162461bcd60e51b815260206004820152602860248201527f455243313135353a204552433131353552656365697665722072656a656374656044820152676420746f6b656e7360c01b60648201526084016104e3565b604080516001808252818301909252606091600091906020808301908036833701905050905082816000815181106118875761188761245b565b602090810291909101015292915050565b6001600160a01b0384163b15610fa15760405163f23a6e6160e01b81526001600160a01b0385169063f23a6e61906118dc908990899088908890889060040161268a565b6020604051808303816000875af1925050508015611917575060408051601f3d908101601f19168201909252611914918101906125c7565b60015b611923576117326125e4565b6001600160e01b0319811663f23a6e6160e01b146112ac5760405162461bcd60e51b815260206004820152602860248201527f455243313135353a204552433131353552656365697665722072656a656374656044820152676420746f6b656e7360c01b60648201526084016104e3565b606061051d6001600160a01b03831660145b606060006119b58360026126cd565b6119c09060026124a2565b67ffffffffffffffff8111156119d8576119d8611eb6565b6040519080825280601f01601f191660200182016040528015611a02576020820181803683370190505b5090507f300000000000000000000000000000000000000000000000000000000000000081600081518110611a3957611a3961245b565b60200101906001600160f81b031916908160001a9053507f780000000000000000000000000000000000000000000000000000000000000081600181518110611a8457611a8461245b565b60200101906001600160f81b031916908160001a9053506000611aa88460026126cd565b611ab39060016124a2565b90505b6001811115611b38577f303132333435363738396162636465660000000000000000000000000000000085600f1660108110611af457611af461245b565b1a60f81b828281518110611b0a57611b0a61245b565b60200101906001600160f81b031916908160001a90535060049490941c93611b31816126ec565b9050611ab6565b508315611b875760405162461bcd60e51b815260206004820181905260248201527f537472696e67733a20686578206c656e67746820696e73756666696369656e7460448201526064016104e3565b9392505050565b6001600160a01b038516611c155760005b8351811015611c1357828181518110611bba57611bba61245b565b602002602001015160036000868481518110611bd857611bd861245b565b602002602001015181526020019081526020016000206000828254611bfd91906124a2565b90915550611c0c905081612487565b9050611b9f565b505b6001600160a01b038416610fa15760005b83518110156112ac576000848281518110611c4357611c4361245b565b602002602001015190506000848381518110611c6157611c6161245b565b6020026020010151905060006003600084815260200190815260200160002054905081811015611cf95760405162461bcd60e51b815260206004820152602860248201527f455243313135353a206275726e20616d6f756e74206578636565647320746f7460448201527f616c537570706c7900000000000000000000000000000000000000000000000060648201526084016104e3565b60009283526003602052604090922091039055611d1581612487565b9050611c26565b828054611d2890612420565b90600052602060002090601f016020900481019282611d4a5760008555611d90565b82601f10611d6357805160ff1916838001178555611d90565b82800160010185558215611d90579182015b82811115611d90578251825591602001919060010190611d75565b50611d9c929150611da0565b5090565b5b80821115611d9c5760008155600101611da1565b80356001600160a01b0381168114611dcc57600080fd5b919050565b60008060408385031215611de457600080fd5b611ded83611db5565b946020939093013593505050565b6001600160e01b031981168114610b1d57600080fd5b600060208284031215611e2357600080fd5b8135611b8781611dfb565b600060208284031215611e4057600080fd5b5035919050565b60005b83811015611e62578181015183820152602001611e4a565b83811115611e71576000848401525b50505050565b60008151808452611e8f816020860160208601611e47565b601f01601f19169290920160200192915050565b602081526000611b876020830184611e77565b634e487b7160e01b600052604160045260246000fd5b601f8201601f1916810167ffffffffffffffff81118282101715611ef257611ef2611eb6565b6040525050565b600067ffffffffffffffff821115611f1357611f13611eb6565b5060051b60200190565b600082601f830112611f2e57600080fd5b81356020611f3b82611ef9565b604051611f488282611ecc565b83815260059390931b8501820192828101915086841115611f6857600080fd5b8286015b84811015611f835780358352918301918301611f6c565b509695505050505050565b600067ffffffffffffffff831115611fa857611fa8611eb6565b604051611fbf601f8501601f191660200182611ecc565b809150838152848484011115611fd457600080fd5b83836020830137600060208583010152509392505050565b600082601f830112611ffd57600080fd5b611b8783833560208501611f8e565b6000806000806080858703121561202257600080fd5b61202b85611db5565b9350602085013567ffffffffffffffff8082111561204857600080fd5b61205488838901611f1d565b9450604087013591508082111561206a57600080fd5b61207688838901611f1d565b9350606087013591508082111561208c57600080fd5b5061209987828801611fec565b91505092959194509250565b600080600080600060a086880312156120bd57600080fd5b6120c686611db5565b94506120d460208701611db5565b9350604086013567ffffffffffffffff808211156120f157600080fd5b6120fd89838a01611f1d565b9450606088013591508082111561211357600080fd5b61211f89838a01611f1d565b9350608088013591508082111561213557600080fd5b5061214288828901611fec565b9150509295509295909350565b6000806040838503121561216257600080fd5b8235915061217260208401611db5565b90509250929050565b6000806040838503121561218e57600080fd5b823567ffffffffffffffff808211156121a657600080fd5b818501915085601f8301126121ba57600080fd5b813560206121c782611ef9565b6040516121d48282611ecc565b83815260059390931b85018201928281019150898411156121f457600080fd5b948201945b838610156122195761220a86611db5565b825294820194908201906121f9565b9650508601359250508082111561222f57600080fd5b5061223c85828601611f1d565b9150509250929050565b600081518084526020808501945080840160005b838110156122765781518752958201959082019060010161225a565b509495945050505050565b602081526000611b876020830184612246565b600080600080608085870312156122aa57600080fd5b6122b385611db5565b93506020850135925060408501359150606085013567ffffffffffffffff8111156122dd57600080fd5b61209987828801611fec565b6000602082840312156122fb57600080fd5b813567ffffffffffffffff81111561231257600080fd5b8201601f8101841361232357600080fd5b61233284823560208401611f8e565b949350505050565b6000806040838503121561234d57600080fd5b61235683611db5565b91506020830135801515811461236b57600080fd5b809150509250929050565b6000806040838503121561238957600080fd5b61239283611db5565b915061217260208401611db5565b600080600080600060a086880312156123b857600080fd5b6123c186611db5565b94506123cf60208701611db5565b93506040860135925060608601359150608086013567ffffffffffffffff8111156123f957600080fd5b61214288828901611fec565b60006020828403121561241757600080fd5b611b8782611db5565b600181811c9082168061243457607f821691505b6020821081141561245557634e487b7160e01b600052602260045260246000fd5b50919050565b634e487b7160e01b600052603260045260246000fd5b634e487b7160e01b600052601160045260246000fd5b600060001982141561249b5761249b612471565b5060010190565b600082198211156124b5576124b5612471565b500190565b6040815260006124cd6040830185612246565b82810360208401526124df8185612246565b95945050505050565b7f416363657373436f6e74726f6c3a206163636f756e7420000000000000000000815260008351612520816017850160208801611e47565b7f206973206d697373696e6720726f6c6520000000000000000000000000000000601791840191820152835161255d816028840160208801611e47565b01602801949350505050565b60006001600160a01b03808816835280871660208401525060a0604083015261259560a0830186612246565b82810360608401526125a78186612246565b905082810360808401526125bb8185611e77565b98975050505050505050565b6000602082840312156125d957600080fd5b8151611b8781611dfb565b600060033d11156125fd5760046000803e5060005160e01c5b90565b600060443d101561260e5790565b6040516003193d81016004833e81513d67ffffffffffffffff816024840111818411171561263e57505050505090565b82850191508151818111156126565750505050505090565b843d87010160208285010111156126705750505050505090565b61267f60208286010187611ecc565b509095945050505050565b60006001600160a01b03808816835280871660208401525084604083015283606083015260a060808301526126c260a0830184611e77565b979650505050505050565b60008160001904831182151516156126e7576126e7612471565b500290565b6000816126fb576126fb612471565b50600019019056fea2646970667358221220ffd55a28d7c9ab42992a0b0cc4e35531d2d1bc61273ae8055873ee65ecd90c7864736f6c634300080b0033",
  "devdoc": {
    "kind": "dev",
    "methods": {
      "balanceOf(address,uint256)": {
        "details": "See {IERC1155-balanceOf}. Requirements: - `account` cannot be the zero address."
      },
      "balanceOfBatch(address[],uint256[])": {
        "details": "See {IERC1155-balanceOfBatch}. Requirements: - `accounts` and `ids` must have the same length."
      },
      "exists(uint256)": {
        "details": "Indicates whether any token exist with a given id, or not."
      },
      "getRoleAdmin(bytes32)": {
        "details": "Returns the admin role that controls `role`. See {grantRole} and {revokeRole}. To change a role's admin, use {_setRoleAdmin}."
      },
      "grantRole(bytes32,address)": {
        "details": "Grants `role` to `account`. If `account` had not been already granted `role`, emits a {RoleGranted} event. Requirements: - the caller must have ``role``'s admin role. May emit a {RoleGranted} event."
      },
      "hasRole(bytes32,address)": {
        "details": "Returns `true` if `account` has been granted `role`."
      },
      "isApprovedForAll(address,address)": {
        "details": "See {IERC1155-isApprovedForAll}."
      },
      "owner()": {
        "details": "Returns the address of the current owner."
      },
      "renounceOwnership()": {
        "details": "Leaves the contract without owner. It will not be possible to call `onlyOwner` functions anymore. Can only be called by the current owner. NOTE: Renouncing ownership will leave the contract without an owner, thereby removing any functionality that is only available to the owner."
      },
      "renounceRole(bytes32,address)": {
        "details": "Revokes `role` from the calling account. Roles are often managed via {grantRole} and {revokeRole}: this function's purpose is to provide a mechanism for accounts to lose their privileges if they are compromised (such as when a trusted device is misplaced). If the calling account had been revoked `role`, emits a {RoleRevoked} event. Requirements: - the caller must be `account`. May emit a {RoleRevoked} event."
      },
      "revokeRole(bytes32,address)": {
        "details": "Revokes `role` from `account`. If `account` had been granted `role`, emits a {RoleRevoked} event. Requirements: - the caller must have ``role``'s admin role. May emit a {RoleRevoked} event."
      },
      "safeBatchTransferFrom(address,address,uint256[],uint256[],bytes)": {
        "details": "See {IERC1155-safeBatchTransferFrom}."
      },
      "safeTransferFrom(address,address,uint256,uint256,bytes)": {
        "details": "See {IERC1155-safeTransferFrom}."
      },
      "setApprovalForAll(address,bool)": {
        "details": "See {IERC1155-setApprovalForAll}."
      },
      "totalSupply(uint256)": {
        "details": "Total amount of tokens in with a given id."
      },
      "transferOwnership(address)": {
        "details": "Transfers ownership of the contract to a new account (`newOwner`). Can only be called by the current owner."
      },
      "uri(uint256)": {
        "details": "See {IERC1155MetadataURI-uri}. This implementation returns the same URI for *all* token types. It relies on the token type ID substitution mechanism https://eips.ethereum.org/EIPS/eip-1155#metadata[defined in the EIP]. Clients calling this function must replace the `\\{id\\}` substring with the actual token type ID."
      }
    },
    "version": 1
  },
  "userdoc": {
    "kind": "user",
    "methods": {},
    "version": 1
  },
  "storageLayout": {
    "storage": [
      {
        "astId": 527,
        "contract": "contracts/MemberrCollectible.sol:MemberrCollectible",
        "label": "_balances",
        "offset": 0,
        "slot": "0",
        "type": "t_mapping(t_uint256,t_mapping(t_address,t_uint256))"
      },
      {
        "astId": 533,
        "contract": "contracts/MemberrCollectible.sol:MemberrCollectible",
        "label": "_operatorApprovals",
        "offset": 0,
        "slot": "1",
        "type": "t_mapping(t_address,t_mapping(t_address,t_bool))"
      },
      {
        "astId": 535,
        "contract": "contracts/MemberrCollectible.sol:MemberrCollectible",
        "label": "_uri",
        "offset": 0,
        "slot": "2",
        "type": "t_string_storage"
      },
      {
        "astId": 1897,
        "contract": "contracts/MemberrCollectible.sol:MemberrCollectible",
        "label": "_totalSupply",
        "offset": 0,
        "slot": "3",
        "type": "t_mapping(t_uint256,t_uint256)"
      },
      {
        "astId": 396,
        "contract": "contracts/MemberrCollectible.sol:MemberrCollectible",
        "label": "_owner",
        "offset": 0,
        "slot": "4",
        "type": "t_address"
      },
      {
        "astId": 24,
        "contract": "contracts/MemberrCollectible.sol:MemberrCollectible",
        "label": "_roles",
        "offset": 0,
        "slot": "5",
        "type": "t_mapping(t_bytes32,t_struct(RoleData)19_storage)"
      },
      {
        "astId": 3513,
        "contract": "contracts/MemberrCollectible.sol:MemberrCollectible",
        "label": "_contractUri",
        "offset": 0,
        "slot": "6",
        "type": "t_string_storage"
      }
    ],
    "types": {
      "t_address": {
        "encoding": "inplace",
        "label": "address",
        "numberOfBytes": "20"
      },
      "t_bool": {
        "encoding": "inplace",
        "label": "bool",
        "numberOfBytes": "1"
      },
      "t_bytes32": {
        "encoding": "inplace",
        "label": "bytes32",
        "numberOfBytes": "32"
      },
      "t_mapping(t_address,t_bool)": {
        "encoding": "mapping",
        "key": "t_address",
        "label": "mapping(address => bool)",
        "numberOfBytes": "32",
        "value": "t_bool"
      },
      "t_mapping(t_address,t_mapping(t_address,t_bool))": {
        "encoding": "mapping",
        "key": "t_address",
        "label": "mapping(address => mapping(address => bool))",
        "numberOfBytes": "32",
        "value": "t_mapping(t_address,t_bool)"
      },
      "t_mapping(t_address,t_uint256)": {
        "encoding": "mapping",
        "key": "t_address",
        "label": "mapping(address => uint256)",
        "numberOfBytes": "32",
        "value": "t_uint256"
      },
      "t_mapping(t_bytes32,t_struct(RoleData)19_storage)": {
        "encoding": "mapping",
        "key": "t_bytes32",
        "label": "mapping(bytes32 => struct AccessControl.RoleData)",
        "numberOfBytes": "32",
        "value": "t_struct(RoleData)19_storage"
      },
      "t_mapping(t_uint256,t_mapping(t_address,t_uint256))": {
        "encoding": "mapping",
        "key": "t_uint256",
        "label": "mapping(uint256 => mapping(address => uint256))",
        "numberOfBytes": "32",
        "value": "t_mapping(t_address,t_uint256)"
      },
      "t_mapping(t_uint256,t_uint256)": {
        "encoding": "mapping",
        "key": "t_uint256",
        "label": "mapping(uint256 => uint256)",
        "numberOfBytes": "32",
        "value": "t_uint256"
      },
      "t_string_storage": {
        "encoding": "bytes",
        "label": "string",
        "numberOfBytes": "32"
      },
      "t_struct(RoleData)19_storage": {
        "encoding": "inplace",
        "label": "struct AccessControl.RoleData",
        "members": [
          {
            "astId": 16,
            "contract": "contracts/MemberrCollectible.sol:MemberrCollectible",
            "label": "members",
            "offset": 0,
            "slot": "0",
            "type": "t_mapping(t_address,t_bool)"
          },
          {
            "astId": 18,
            "contract": "contracts/MemberrCollectible.sol:MemberrCollectible",
            "label": "adminRole",
            "offset": 0,
            "slot": "1",
            "type": "t_bytes32"
          }
        ],
        "numberOfBytes": "64"
      },
      "t_uint256": {
        "encoding": "inplace",
        "label": "uint256",
        "numberOfBytes": "32"
      }
    }
  }
}